:02000002B0004C
:1040000000400B0032A90B00000006000C00050266
:084010000401B41400000000DB
:0440180028930B00DE
:1040200081F0004102E000BF83F0004330B54FEA69
:1040300041044FEA430594EA050F08BF90EA020FD6
:104040001FBF54EA000C55EA020C7FEA645C7FEA69
:10405000655C00F0E2804FEA5454D4EB5555B8BF8C
:104060006D420CDD2C4480EA020281EA030382EAFD
:10407000000083EA010180EA020281EA0303362D8F
:1040800088BF30BD11F0004F4FEA01314FF4801C62
:104090004CEA113102D0404261EB410113F0004F74
:1040A0004FEA03334CEA133302D0524263EB43032B
:1040B00094EA050F00F0A780A4F10104D5F1200EC9
:1040C0000DDB02FA0EFC22FA05F2801841F1000124
:1040D00003FA0EF2801843FA05F359410EE0A5F1F8
:1040E00020050EF1200E012A03FA0EFC28BF4CF029
:1040F000020C43FA05F3C01851EBE37101F00045DF
:1041000007D54FF0000EDCF1000C7EEB00006EEBEB
:104110000101B1F5801F1BD3B1F5001F0CD3490875
:104120005FEA30004FEA3C0C04F101044FEA4452CC
:1041300012F5800F80F09A80BCF1004F08BF5FEA53
:10414000500C50F1000041EB045141EA050130BD33
:104150005FEA4C0C404141EB0101013C28BFB1F545
:10416000801FE9D291F0000F04BF01460020B1FA90
:1041700081F308BF2033A3F10B03B3F120020CDA63
:104180000C3208DD02F1140CC2F10C0201FA0CF041
:1041900021FA02F10CE002F11402D8BFC2F1200CA6
:1041A00001FA02F120FA0CFCDCBF41EA0C0190405C
:1041B000E41AA2BF01EB0451294330BD6FEA0404A5
:1041C0001F3C1CDA0C340EDC04F11404C4F1200290
:1041D00020FA04F001FA02F340EA030021FA04F3A2
:1041E00045EA030130BDC4F10C04C4F1200220FAF9
:1041F00002F001FA04F340EA0300294630BD21FA37
:1042000004F0294630BD94F0000F83F4801306BFFC
:1042100081F480110134013D4EE77FEA645C18BFF0
:104220007FEA655C29D094EA050F08BF90EA020F87
:1042300005D054EA000C04BF1946104630BD91EA7F
:10424000030F1EBF0021002030BD5FEA545C05D182
:104250004000494128BF41F0004130BD14F58004C1
:104260003CBF01F5801130BD01F0004545F0FE4135
:1042700041F470014FF0000030BD7FEA645C1ABF6A
:10428000194610467FEA655C1CBF0B46024650EAA1
:10429000013406BF52EA033591EA030F41F40021CD
:1042A00030BD00BF90F0000F04BF0021704730B553
:1042B0004FF4806404F132044FF000054FF0000128
:1042C00050E700BF90F0000F04BF0021704730B5E9
:1042D0004FF4806404F1320410F0004548BF4042BE
:1042E0004FF000013EE700BF42004FEAE2014FEA13
:1042F00031014FEA02701FBF12F07F4393F07F4FEE
:1043000081F06051704732F07F4208BF704793F0F0
:104310007F4F04BF41F40021704730B54FF4607403
:1043200001F0004521F000411CE700BF50EA010206
:1043300008BF704730B54FF000050AE050EA0102AF
:1043400008BF704730B511F0004502D5404261EB1F
:1043500041014FF4806404F132045FEA915C3FF460
:10436000D8AE4FF003025FEADC0C18BF03325FEAFD
:10437000DC0C18BF033202EBDC02C2F1200300FAAE
:1043800003FC20FA02F001FA03FE40EA0E0021FAD3
:1043900002F11444BDE600BF70B54FF0FF0C4CF4C1
:1043A000E06C1CEA11541DBF1CEA135594EA0C0F73
:1043B00095EA0C0F00F0DEF82C4481EA030621EAAE
:1043C0004C5123EA4C5350EA013518BF52EA0335E9
:1043D00041F4801143F4801338D0A0FB02CE4FF09B
:1043E0000005E1FB02E506F00042E0FB03E54FF0CB
:1043F0000006E1FB03569CF0000F18BF4EF0010EC3
:10440000A4F1FF04B6F5007F64F5407404D25FEABE
:104410004E0E6D4146EB060642EAC62141EA555171
:104420004FEAC52040EA5E504FEACE2EB4F1FD0CB3
:1044300088BFBCF5E06F1ED8BEF1004F08BF5FEA31
:10444000500E50F1000041EB045170BD06F00046E3
:1044500046EA010140EA020081EA0301B4EB5C0490
:10446000C2BFD4EB0C0541EA045170BD41F4801188
:104470004FF0000E013C00F3AB8014F1360FDEBFAD
:10448000002001F0004170BDC4F10004203C35DA89
:104490000C341BDC04F11404C4F1200500FA05F30C
:1044A00020FA04F001FA05F240EA020001F00042AD
:1044B00021F0004110EBD37021FA04F642EB060123
:1044C0005EEA430E08BF20EAD37070BDC4F10C044D
:1044D000C4F1200500FA04F320FA05F001FA04F211
:1044E00040EA020001F0004110EBD37041F10001FD
:1044F0005EEA430E08BF20EAD37070BDC4F1200508
:1045000000FA05F24EEA020E20FA04F301FA05F26F
:1045100043EA020321FA04F001F0004121FA04F217
:1045200020EA020000EBD3705EEA430E08BF20EAE7
:10453000D37070BD94F0000F0FD101F00046400021
:1045400041EB010111F4801F08BF013CF7D041EAA3
:10455000060195F0000F18BF704703F000465200A7
:1045600043EB030313F4801F08BF013DF7D043EA78
:104570000603704794EA0C0F0CEA135518BF95EA2E
:104580000C0F0CD050EA410618BF52EA4306D1D1B5
:1045900081EA030101F000414FF0000070BD50EAD4
:1045A000410606BF1046194652EA430619D094EA5E
:1045B0000C0F02D150EA013613D195EA0C0F05D148
:1045C00052EA03361CBF104619460AD181EA03019C
:1045D00001F0004141F0FE4141F470014FF0000054
:1045E00070BD41F0FE4141F4780170BD70B54FF0EF
:1045F000FF0C4CF4E06C1CEA11541DBF1CEA13556F
:1046000094EA0C0F95EA0C0F00F0A7F8A4EB050450
:1046100081EA030E52EA03354FEA013100F0888047
:104620004FEA03334FF0805545EA131343EA126310
:104630004FEA022245EA111545EA10654FEA0026C5
:104640000EF000419D4208BF964244F1FD0404F57E
:10465000407402D25B084FEA3202B61A65EB0305DA
:104660005B084FEA32024FF480104FF4002CB6EB97
:10467000020E75EB030E22BFB61A754640EA0C0017
:104680005B084FEA3202B6EB020E75EB030E22BF57
:10469000B61A754640EA5C005B084FEA3202B6EB98
:1046A000020E75EB030E22BFB61A754640EA9C0057
:1046B0005B084FEA3202B6EB020E75EB030E22BF27
:1046C000B61A754640EADC0055EA060E18D04FEAE5
:1046D000051545EA16754FEA06164FEAC30343EA85
:1046E00052734FEAC2025FEA1C1CC0D111F4801F52
:1046F0000BD141EA00014FF000004FF0004CB6E74B
:1047000011F4801F04BF01430020B4F1FD0C88BFE9
:10471000BCF5E06F3FF6AFAEB5EB030C04BFB6EBF4
:10472000020C5FEA500C50F1000041EB045170BDE7
:104730000EF0004E4EEA113114EB5C04C2BFD4EB14
:104740000C0541EA045170BD41F480114FF0000E98
:10475000013C90E645EA060E8DE60CEA135594EA14
:104760000C0F08BF95EA0C0F3FF43BAF94EA0C0F17
:104770000AD150EA01347FF434AF95EA0C0F7FF48C
:1047800025AF104619462CE795EA0C0F06D152EAE0
:1047900003353FF4FDAE1046194622E750EA4106C4
:1047A00018BF52EA43067FF4C5AE50EA41047FF4D5
:1047B0000DAF52EA43057FF4EBAE12E74FEA410238
:1047C00012F5001215D211D56FF47873B3EB625263
:1047D00012D94FEAC12343F0004343EA505311F08A
:1047E000004F23FA02F018BF404270474FF000001C
:1047F000704750EA013005D111F0004008BF6FF05A
:10480000004070474FF00000704700BF10F8012BC8
:1048100011F8013B012A28BF9A42F7D0D01A7047FD
:10482000034613F8012B002AFBD1181A01387047F0
:1048300009480A49884208B505D0094A824202D08F
:10484000121A04F027FC0748074A0021121A04F044
:104850002FFC014808BD00BFBCE4032090A80B005A
:1048600030E5032030E50320F0E7032070B5074E64
:10487000074C04F07DF9A41BA4080025AC4200D12C
:1048800070BD56F8043B98470135F7E748A80B0080
:104890006CA80B0001F0EAB808B500F0A1FFBDE874
:1048A000084004F01DB903F01FB803F01DB803F071
:1048B00023B8000008B5034A03490C2002F068FF42
:1048C000FEE700BFF1730B003C930B000078B0FAD9
:1048D00080F040097047012303707047014B0122AB
:1048E0001A707047BCE4032010B5002104468170A3
:1048F000008904F0ADF9208904F0D4F901280DD124
:1049000022785AB9A37A207023B16368A07001336A
:104910006360A272637883F001036370208904F0FE
:10492000C1F910B901232070A37210BD017840882D
:1049300004F09FB90000000010B50446008804F0A0
:10494000C4F96060FFF7BEFC16A3D3E90023FFF7AC
:1049500023FD16A3D3E90023FFF748FE0E4B0022E8
:10496000FFF762FB0D4B0022FFF716FDFFF726FF56
:10497000A060FFF7A7FC06A3D3E90023FFF70CFD17
:10498000074B0022FFF752FBFFF718FFE06010BD56
:10499000CDCCCCCCCCCCFC3F0000E03F000059405B
:1049A000000040406666666666660A4000000000D9
:1049B00000FEAF4010B50446008804F086F9606040
:1049C00010BD13B500210446084602F0C1FC0023C7
:1049D000204601A9019302F0D3FC019C0CB10123F4
:1049E00023710021012002F0B3FC2CB12368204682
:1049F0009B6898470023237102B010BD10B4036870
:104A00005A6899681B68541001EB6200D20748BFCE
:104A10000A595DF8044B48BFD358184710B40368CF
:104A20005A6899681B68541001EB6200D20748BFAE
:104A30000A595DF8044B48BFD358184710B40368AF
:104A40005A6899681B68541001EB6200D20748BF8E
:104A50000A595DF8044B48BFD358184710B403688F
:104A60005A6899681B68541001EB6200D20748BF6E
:104A70000A595DF8044B48BFD3581847012A38B586
:104A8000044602D10B68236003E0022A03D0032A04
:104A90000DD0002038BD0C200D68FFF704FF034641
:104AA0000028F0D095E8070083E80700EBE70068EE
:104AB0000028EED00C21FFF7FAFEEAE7012A38B50C
:104AC000044602D10B68236003E0022A03D0032AC4
:104AD0000DD0002038BD0C200D68FFF7E4FE034622
:104AE0000028F0D095E8070083E80700EBE70068AE
:104AF0000028EED00C21FFF7DAFEEAE7012A38B5EC
:104B0000044602D10B68236003E0022A03D0032A83
:104B10000DD0002038BD0C200D68FFF7C4FE034601
:104B20000028F0D095E8070083E80700EBE700686D
:104B30000028EED00C21FFF7BAFEEAE7012A38B5CB
:104B4000044602D10B68236003E0022A03D0032A43
:104B50000DD0002038BD0C200D68FFF7A4FE0346E1
:104B60000028F0D095E8070083E80700EBE700682D
:104B70000028EED00C21FFF79AFEEAE7012A02D1C5
:104B8000016000207047022A04BF0B680360F8E749
:104B90000368184708B502F033FC034B1860BDE802
:104BA000084002F031BE00BF28E7032010B583683B
:104BB000044613B1032201469847204610BD000069
:104BC00037B5134B036004468068C8B100256FF009
:104BD0000043CDE9003502212B462A4602F0D8FBDE
:104BE000A068294602F0F4FB237903F0FF0513B116
:104BF00002F0A6FBF8E7A068294602F0B9FBA56021
:104C000004F10C00FFF7D2FF204603B030BD00BF17
:104C100030940B0010B50446FFF7D2FF20461C214C
:104C2000FFF745FE204610BD03682BB14268934252
:104C300002D2184604F026BA0020704738B505683D
:104C4000044645B143689D4205D22846FFF7E8FD7A
:104C5000013005442560204638BDF8B50446476854
:104C60000D4621B903687A1C4260D955F8BD084643
:104C7000FFF7D6FDA368461CF2199A42F6D82068C1
:104C800032462946384404F005FA606830446060D2
:104C9000ECE7000038B504460B46D0E90101256871
:104CA000044A091A284402F037FE636801300344BD
:104CB000636038BD51930B0038B504460B46D0E90C
:104CC00001012568044A091A284402F025FE636898
:104CD00001300344636038BD54930B0010B50121CB
:104CE0000446064801F009FC044821684FF001130E
:104CF0004361BDE8104003F0A6B800BF98E503206B
:104D000008B5086804F0BEF9054B18601B6833B19C
:104D1000044B054A1B68591F05331160536008BDD9
:104D200090E5032038E6032054E60320826810B59E
:104D30000AB904F08CF8BDE81040C368184708B5FC
:104D4000436913B10C30FFF7F1FF08BD38B5074DCB
:104D50000024D5E900031B1AB4EB231F05D200EB96
:104D60000410FFF7E3FF0134F3E738BDACE603209E
:104D700008B500234377006803F0C8FCBDE808408D
:104D800002F035BA13B50B460246D0E900016C4675
:104D900084E8030093E8030082E8030094E803003A
:104DA00083E8030002B010BD38B50D46044668B173
:104DB0000023836001462846FFF7E4FFAB68A26842
:104DC000AA60A360EB68E268EA60E36038BD0000B7
:104DD0002DE9F74FD0E9008B07466FF07843ABEB36
:104DE0000800B3EB201F8A4611464FEA201202D179
:104DF000244804F029F8012A144638BF0124A418D5
:104E0000AAEB08051BD2E4B19C4228BF1C46200136
:104E10000191FFF748FD019906467019FFF7C4FF9D
:104E200045463046AA4500F110090CD02946FFF747
:104E3000BBFF2846FFF7BAFE10354846F2E71C468E
:104E4000E5E72646E9E75D450AD029464846FFF7EB
:104E5000ABFF2846FFF7AAFE103509F11009F2E76B
:104E6000B8F1000F05D0B9684046A1EB0801FFF783
:104E70001EFD06EB0414C7E90069BC6003B0BDE881
:104E8000F08F00BF58930B0038B5D0E90135AB4225
:104E900004460A4606D01846FFF786FF63681033BB
:104EA000636038BD1946FFF793FFFAE72DE9F04F2D
:104EB000DFF86490DFF86480154F416085B082466A
:104EC0000024DAF80050DAF804304FF0000B0C2020
:104ED0001E5BCDF808B005EB4405FFF7E4FC10B10C
:104EE000C0E9009B8560694600900A48CDE90278D8
:104EF000FFF7CAFF6846FFF759FE02346E800121B2
:104F0000304603F0A5FE062CDBD105B0BDE8F08FDE
:104F10003D4B0B00ACE603202D490B005D4A0B0016
:104F20002DE9F0438F188FB0B942CDE90517064639
:104F30008946904680F0C28005A80D88FFF77EFE66
:104F40000368BB4280F0BA8005980378412B49D1B1
:104F5000013004F097F8052837DDFF2447F2762367
:104F60009D4200F0D38041D847F261239D4200F07A
:104F7000A88047F264239D426BD046F670539D4251
:104F800041D1784D784EDFF8F4810598B84280F031
:104F900095800378412B4BD1013004F073F805283C
:104FA00039DDFF2405A8FFF749FEDDF814902946F6
:104FB0004846FFF72BFC014600283DD1204603F070
:104FC00047FE05A8FFF73AFEDFE70598013004F039
:104FD00059F80028C1DB0598013004F053F80E3071
:104FE000C4B2BBE705A8FFF71FFEF9E747F26473F9
:104FF0009D424FD047F276739D4200F0978047F272
:1050000061739D426FD00023CDE9013302220092EB
:10501000728B19463AE00598013004F033F8002805
:10502000BFDB0598013004F02DF80E30C4B2B9E7AB
:1050300005A8FFF7F9FDF9E731464846FFF7E6FB1B
:1050400028B141464846FFF7E1FB0028B9D10121CC
:10505000B4E70AAB4549079307A810230025CDE91B
:105060000853FFF7FAFD07A82146FFF713FE204675
:1050700003F018FE014607A8FFF71EFE089BCDE9C6
:105080000155013B0093079B2A461421304600F04E
:1050900085FA13E005A8FFF7D1FD03689F420DD9FB
:1050A000A4B20121204603F0D3FD05A8FFF7BCFD03
:1050B000011E18BF0121204603F0DBFD0FB0BDE843
:1050C000F0830AAB079307A8102329490025CDE9EF
:1050D0000853FFF7C2FD07A82146FFF7DBFD204676
:1050E00003F0F3FDC6E705A8FFF7A8FD03689F429C
:1050F000E4D9A4B20121204603F0AAFD05A8FFF7D8
:1051000093FD0146204603F0F7FDD7E720468DF8D2
:10511000284002F06DF803460AA823B1154A9342CD
:1051200001D09847CAE702F060F8C7E705A8FFF783
:1051300085FD059B8DF81C40A3EB0901A8EB01013F
:105140002046CDE90A310C9102F05CF803460AA929
:1051500007A823B1084A934201D09847AEE702F06E
:1051600045F8ABE772930B0075930B007D930B0032
:1051700080930B00EB710B00ED710B0079930B002A
:105180002DE9F0418CB004AF044605220068391DBA
:1051900002F07FFFA8B3052804D000202037BD46C9
:1051A000BDE8F081B7F8050002F0EAF9A7F80500BC
:1051B000B7F8070002F0E4F9B7F80530A7F80700E0
:1051C0008046002BE9D03B7923BB02F00CF8024665
:1051D000E060607FB7F80730C0B9B7F80510012963
:1051E00014D1092B0FD0C82B01D0042BD6D1012507
:1051F00062612046657700F081FAFFF7CBFC01F091
:10520000F6FF0120CAE703236377C7E7581F18BFDB
:105210000120C3E7B0F5806F03D92046FFF7A8FD52
:10522000EFE700F1080323F007036E46ADEB030D33
:1052300004AD02462946206802F02BFF80454FF05E
:1052400000007FD1B7F80730E85401F0CCFF3B797C
:10525000E060142B00F0A68048D80F2B00F0A2804D
:1052600007D8022B48D0062B51D02046FFF780FDEF
:1052700058E0112BF9D100233B70B7F807302B44CD
:105280009D42C7E903534DD207F10C00D5F80080C9
:10529000FFF7D4FCFB68B7F807105D1B4D1BC7E98F
:1052A00005357B68FD61C3F30F236383644B984529
:1052B00000F0BF8000F28C80A3F57F236FF40072B2
:1052C0001344984500F09D8079D8A3F50033063B40
:1052D000984500F09C8003F50033033398456BD16B
:1052E00007F11401384601F081FF65E0292B1BD03E
:1052F000372B17D01D2BB8D1637F43B901236377B8
:10530000204600F0FBF9FFF745FC01F070FF002399
:10531000C821B7F805200091CDE901331946204690
:1053200000F03CF901200DE0A3681BB9402002F019
:10533000DBFAA060B7F80780A8444545C7E90558DF
:1053400002D30020B54629E729464022A06803F091
:10535000E5FEA368002583F83F5007F11400FFF72E
:105360006DFC036898451BD9786920B1BB699842E8
:1053700014D203F08BFE85B2206803F0C7F92368CE
:10538000A2685A631D870023637701F02CFFA0F504
:105390009C500838C4E903006061C3E72846EAE787
:1053A0005025E9E77B68B7F80720C3F30F23638331
:1053B00029462046FFF7B4FD00236383B2E7214B63
:1053C0009845F9D107F11401384601F00FFFF3E7D2
:1053D0001D4B984521D003F19F6303F5003303F57E
:1053E000807398451FD003F16E4303F5302303F516
:1053F00086739845E0D107F11401384601F0F6FEB6
:10540000DAE707F11401384601F0F0FED4E707F1BE
:105410001401384601F0EAFECEE707F114013846E0
:1054200001F0E4FEC8E707F11401384601F0DEFEA2
:10543000C2E707F11401384601F0D8FEBCE700BF0F
:10544000766673006462670061636F6E2DE9F041F8
:1054500004468CB00D46FFF79DFB637F022B1ED0E8
:10546000237F628B0133DBB22377AAB9022B13D8D7
:10547000206803F013F8A8B125B9206803F0ECF810
:1054800000280FDD2046FFF77BFE0028F5D12068BD
:1054900003F03CF901F0ABFE237F013B23770CB016
:1054A000BDE8F08101F09FFE0546206802F0F6FF9E
:1054B000677F012F064624D120B965612046FFF79A
:1054C00057FCE9E7E3684FF21862EB1A9342F5D80C
:1054D0004AF6C872934203D82369EB1A9342DBD988
:1054E000636941F27072EB1A9342D5D90023CDE97A
:1054F000013300931A460621204600F04FF86561FB
:10550000CAE7002FC8D16369EB1A40B141F270724B
:105510009342C1D9206803F0F9F86777BCE741F2FC
:1055200088329342B8D9206803F0F0F8D4F800C06C
:10553000DCF834E0BCF83880BEF1000F1BD03346F5
:1055400042467146604602F02BFF0128D7D16368BE
:105550000593012518462583FFF762F90022CDE95E
:105560000122059B00902A461D21204600F016F8D6
:105570002369636190E7084B06930CF120070FCF76
:1055800007AE0FC63B6833704246734606A96046B5
:1055900002F0E6FFD9E700BF54A40B002DE9F04F5D
:1055A00083B000AF044600683D6B884616469946B6
:1055B000EB4602F073FF002800F08180B8F11D0F68
:1055C00004D84D4B23FA08F3DB0702D4637F012B89
:1055D00075D146B9668B36B9238B01339BB2002B4C
:1055E00072D02383268BA8F10C03082B16D8D4E99C
:1055F0000323934238BF134603F1420A01F0F3FD3F
:10560000AAEB0000002861DB00212046FFF71EFF07
:1056100001F0E9FDAAEB00000028F5DAB9F1000F6E
:105620005BD06B1D7A6B002ABA6B08BF002203EBBC
:10563000020A0AF1070323F00703ADEB030D30461E
:105640008DF80080C7F804D001F0A2FFBB6BADF865
:105650000100E81880B201F09BFFADF80300B9F13A
:10566000000F3CD0002D3AD02A4649460DF10500E6
:1056700003F010FD681D7B6B3BB1BB6B2BB11A4671
:105680007B68796B184403F005FD002555452AD247
:10569000AAEB05027B682068B2F5806F28BF4FF443
:1056A0008062591902F0ADFD0646002001F099FD17
:1056B000BEB9206803F02AF8667701F098FD0C3730
:1056C000DD46BD46BDE8F08F01238AE7217F002932
:1056D000A4D12046FFF7BAFEA0E70523A2E70520E4
:1056E000C9E73544D2E703D02046FFF741FBE6E7A0
:1056F00001F079FD2061E2E74500002030B599B066
:1057000008AB044605930025402305A80B49CDE9C5
:105710000653FFF7A2FA05A80949FFF79EFA069B70
:105720000293059B0193652300932A46054B1121A3
:105730002046FFF733FF19B030BD00BF83930B0045
:1057400088930B0044940B00F0B5ADF2244D08ABE8
:10575000002405460F46059305A84FF480630E49C3
:105760001646CDE90643FFF778FA394605A8FFF754
:1057700091FA314605A8FFF78DFA069B013B00938D
:10578000CDE90144059B224614212846FFF706FF78
:105790000DF2244DF0BD00BF96930B0070B5ADF532
:1057A000846D08AB164600240546059305A84FF402
:1057B00080630968CDE90643FFF74FFA314605A833
:1057C000FFF74BFA069B013B0093CDE90144059B93
:1057D000224640212846FFF7E1FE0DF5846D70BD9D
:1057E0002DE9F04FDFF85882894D8A4EDFF8789224
:1057F000894F8A4C87B0FFF7A9FA00218848FFF744
:1058000025FE404601F079FD404601F02FF82A6858
:1058100084484FF0000BC8F810B082F800B02A6836
:1058200082F804B082F808B001F0BBFB6423009357
:105830004FF47A725B46594602F09EF8F268C9F856
:10584000000004217648FFF77FFFB2687448032107
:10585000FFF77AFFD7F804A0BAF1010F4FDC6423F9
:105860007148009340F6FF725B46594640686F4EA0
:1058700002F082F87A686E4944F82A0052000A6001
:105880002968307801F822006A4902A802F061FC18
:1058900002A8FFF723FA02A802F010FC7A6802A817
:1058A00054F82210644C0A2202F079FC02A8FFF797
:1058B00015FA02A802F002FC2278D2B15F4DA86866
:1058C00030B1CDE900BB5B465A46022101F060FDD4
:1058D000A86840B100236FF00042CDE900231946CB
:1058E0001A4601F055FD337883F00103337000232D
:1058F0002370534807B0BDE8F04F01F025BA404689
:1059000001F014FD08B1C7F804B0D9F800204448EC
:105910000021FFF719FF226841480121FFF714FF1A
:10592000022162683E48FFF70FFF2068D9F8003077
:10593000444A9842D4BF00210121117061688B4212
:10594000D4BF00240124984294705EDC8B42CCBF0B
:105950000023012353703C493C4A3A4C3C4FDFF84A
:10596000F4E000234FF0010C08781070286814F858
:10597000018B00F82380286812F8018B10F82300AF
:1059800001F8010B804504D018B187F800C0CEF8AB
:1059900000300133032BE7D12D4C237853B12D4B2D
:1059A0002D4A19682D4B1E4803EB0111FFF7F6FE37
:1059B000002323702A4902A802F0CBFB02A8FFF7BC
:1059C0008DF902A802F07AFB0A22F16802A802F01F
:1059D000E6FB02A8FFF782F902A802F06FFB21495B
:1059E00002A802F0B6FB02A8FFF778F902A802F0BD
:1059F00065FBB1680A2202A802F0D1FB02A8FFF7FA
:105A00006DF902A802F05AFB73E70023A2E700BF7A
:105A100044E603209CE603205CE6032054E60320D2
:105A200030E503203CE603204CE603208CE5032010
:105A300040E6032099930B00BCE403200CE603200E
:105A400098E5032008E6032098E6032094E5032068
:105A5000BDE4032034E60320A0930B0068E6032096
:105A6000B4930B00C0930B0038E60320F0B585B06B
:105A700002F064FF4FF4165102F054FF514C40F60F
:105A8000B83001F0AEFB504B636001F0ACFBA0F509
:105A90009C5023684D4A5A630838C4E903005022D9
:105AA00060611A87002644F24F67206802F02EFEDC
:105AB000667701F098FB0546637F012B0CD001F05F
:105AC00092FB401BB84204D800212046FFF7BEFCE1
:105AD000F2E7637F012BE8D13D4C102000212080AC
:105AE000002503F0B5F80C200295FEF7DCFE18B196
:105AF000384B8460C0E90035374B00906946374821
:105B00000393374B0293FFF7BFF96846FFF74EF850
:105B100034493548354CFFF7C9F900250C2002956A
:105B2000FEF7C1FE18B1324B8460C0E90035314B3D
:105B300000906946294803932F4B0293FFF7A4F97D
:105B40006846FFF733F80520208100212B4C03F035
:105B50007FF80F2000212080002503F079F80C2029
:105B60000295FEF7A0FE18B1254B8460C0E9003510
:105B7000244B0090694619480393234B0293FFF787
:105B800083F96846FFF712F803F0F8F801461F485A
:105B900001F0FCFA20B902F0D1FE1D4902F053F9E0
:105BA0001A4801F07CFA194801F0A7FA194801F0E7
:105BB0007BFB184800F05AFE164805B0BDE8F040DF
:105BC00001F0C2B830E50320C9930B00EA930B0043
:105BD0009CE6032039490B00FD490B00ACE603208D
:105BE0007D4A0B00BEE4032044E603205CE603206C
:105BF000E9480B003D4A0B00FD4A0B004CE6032030
:105C0000B5490B001D4A0B00BD4A0B003CE60320C2
:105C1000F6930B0098E5032070B5364B364D002403
:105C200086B0C3E900449C60284602F0B9FD05F146
:105C30001C0001F0BFFF314B6C63C3E90054C3E9A2
:105C40000244C3E904449C619C832C8721460120C3
:105C500001F0BEFD2A4D2B48072101F0F7FA2A4832
:105C600001F065F92949284602F073FA284905F13F
:105C7000100002F06EFA274905F1200002F069FADF
:105C8000254D264B264A1C70C2E900341C711C723B
:105C9000288803F01AF8234B0293234B686005937E
:105CA000224D234B0493234B2B6005F10C0102A8DA
:105CB0002C71AC606C61FFF765F86A69049B6B61DD
:105CC0000492059BAA6905920126AB611A4A0194C8
:105CD0002B464FF4FA71009605F1080001F040FBE5
:105CE00002A8FEF763FF154B1C809C705C609E72DF
:105CF00006B070BDACE6032050E5032030E503207C
:105D000068E6032098E503203CE6032004940B009A
:105D10000E940B001B940B004CE6032028E6032096
:105D200044E60320DD480B00914B0B000CE60320FA
:105D30007D4B0B0030940B00C3490B005CE6032045
:105D40002DE9F04F85B01F46BDF93880BDF83C30D5
:105D5000A8EB0209A7EB010AB9F1000FB8BFC9F11E
:105D60000009BAF1000FB8BFCAF1000AD145834655
:105D70000C46154604DD3A462C4647460D469046ED
:105D8000BC4205DD2A464546904622463C4617461B
:105D90003E1BB2B20092A8EB050282EAE271A1EBCF
:105DA000E271C6F3C03202FA86F64545B4BF01225D
:105DB0004FF0FF32019176100292BC421CDCDBF8FE
:105DC00000200393D145D2F81880C7BF2946224648
:105DD0002A4621465846C047019A039BB61AB1B2DB
:105DE00036B2002E05DA029A1544009A56182DB2E2
:105DF00036B2013424B2E0E705B0BDE8F08F704759
:105E000010B404682469A4465DF8044B604730B4BC
:105E10000468BDF808500295A46BA44630BC6047E6
:105E200030B40468BDF808500295E46BA44630BC59
:105E3000604770B4BDF90C50BDF810600468CDE93E
:105E40000356246CA44670BC60472DE9F3411C4600
:105E50000368BDF820805B6905461646013C344462
:105E60000F4624B298472B68CDF8048000949C6AB2
:105E700028463B4632463946A0472B68DB6A28460F
:105E800002B0BDE8F04118472DE9F3411D46036813
:105E9000BDF820805B69044617460E469847CDE959
:105EA000007822686B1E3344956A20461BB23A463E
:105EB0003146A8472368DB6A204602B0BDE8F041BE
:105EC00018472DE9F3471E460368BDF928905B6922
:105ED000BDF82C800C460546174698472644B44228
:105EE0002B680BDACDF80080D3F820A021464B4672
:105EF0003A4628460134D04724B2F0E7DB6A284608
:105F000002B0BDE8F047184713B502680191B0F937
:105F10000E100091146CB0F90C3000221146A0470D
:105F200002B010BD2DE9F74399421646BDF928701D
:105F3000BDF82C90026880460D461C4613D1BE4227
:105F4000C8BF3346CDF82890C4BF3E461F467B1CD1
:105F5000946B9B1B1BB2324629464046A44603B0B5
:105F6000BDE8F0436047BE420AD19942C2BF0B462A
:105F700025461C46631CCDF82890D46B5B1BE9E7D3
:105F800053699847CDE90079D8F8003040469F6AB8
:105F9000324623462946B847D8F80030DB6A4046E7
:105FA00003B0BDE8F04318472DE9F3471D460368E9
:105FB000BDF82C805B69BDF9289004460F46164653
:105FC00098472368CDF80080D3F824A032462B46AA
:105FD00039462046D0472368CDF8008009F1FF32CA
:105FE0003244D3F824A039462B46204612B2D0477B
:105FF0002368CDF80080D3F820A032464B463946BE
:106000002046D0476B1ED9192368CDF800801D6A41
:1060100020464B46324609B2A8472368DB6A204631
:1060200002B0BDE8F0471847704701F00303B0F92C
:106030000A208376C907B0F9083059BF8381C2812D
:106040008281C3817047000030B54281C281074A16
:10605000074D0181002481814FF0FF31C0E9051215
:106060004460056004610477046230BD01010001F1
:10607000B4990B002DE9F04F89B0CDE90212026806
:10608000BDF948800493BDF94C3052690593BDF8C1
:1060900050A00446904718F107024FF0000648BF91
:1060A00008F10E024FEAE20B01963546039B019A76
:1060B000BDF904109A18059B8B4212B227DD049B90
:1060C00033444FF0000906930FFA89F080451FFA18
:1060D00089F117DD4F0705BF069BC0106D001D5CE1
:1060E00018BFEDB22B060AD5029B2068079219440F
:1060F000836909B21F4620465346B847079A09F1FB
:106100000109E1E7019B013301935E44CEE7236877
:10611000DB6A204609B0BDE8F04F18472DE9F04F83
:106120002DED028B91B01646026ABDF874809DF881
:1061300078509DF87C4003911F46BDF87030049361
:106140008346002A40F0C580B0F90C308B4240F302
:106150004C81B0F90E30B34240F34781062313FB64
:106160000513002B40F3418106EBC403002B40F3E1
:106170003C81037F1BB9AF2F84BF0137FFB2DBF82F
:10618000003058465B699847052209920022059223
:10619000984A07EB8703D3180C93B3B20693059A7A
:1061A0000C9B9B5C0793ABB20B93BDF80C30089330
:1061B000039B02FB05F919FA83F90FFA89F308EE3C
:1061C000103A08230A93039B02EB030A4FF00009DD
:1061D0000FFA8AFA079ADBF80030D20752D5012D60
:1061E0001FFA89F23ED1012C3CD19B6906991F46CA
:1061F000049B0A4412B251465846B84709F10103BC
:106200004FFA83F9079B5B0807930A9B013B13F046
:10621000FF030A93DED1059F01377BB20593099BEB
:10622000013B13F0FF030993B9D1049B43450FD001
:10623000012DDBF800303BD1012C39D10899CDF884
:10624000008005311C6A3246082309B25846A0472F
:10625000DBF80030DB6A584611B0BDEC028BBDE8BC
:10626000F04F1847069914FB02F20A440499019171
:106270000094DB6918EE101A1F4612B22B465846DE
:10628000B847BBE7049A4245B8D0012D1FFA89F2FE
:1062900007D1012C05D19B6906991F460A44434644
:1062A000A8E70699CDF8048014FB02F20A44DFE760
:1062B0000B9ACDF8048002EB8201089AE4000A44AC
:1062C00011460094DC6932462B4609B25846A04775
:1062D000BEE7137A516812680B92FF1AFFB201EB06
:1062E000C70331F8372006929A780992DA780C922F
:1062F000012D93F9052093F906A00A9201D8012CEB
:1063000057D9BDF9283008930FFA8AF30793DBF8C1
:10631000003058465B699847B3B24FF000080E93BF
:106320001AFA86F3C14647460F930C9B9F428FD2C1
:10633000079B0E9A3B4403FB0423002205920F9A0D
:106340001BB202EB070A08EE103A0FFA8AFA43462C
:10635000099A0599914241D25A1CD2B25B070D921B
:1063600007D1069B06990B9A01339BB212F8019054
:10637000069319F0800F12D0012DDBF80030BDF824
:106380000C101AD1012C18D10A9A9B691144059A54
:1063900011441E465246049B09B25846B047059E1A
:1063A0000136F3B24FEA490905935FFA89F90D9B6B
:1063B000CEE70023CDE90733A9E70598089A024400
:1063C00002FB0511049ACDE90042DB6918EE102AA0
:1063D0001E4609B22B465846B047E0E7099B0137F5
:1063E00098445FFA88F8FFB29FE711B0BDEC028BCA
:1063F000BDE8F08FAB940B00F0B5026A85B004469F
:106400000B46002A34D10A2908D1438A0282427EEF
:1064100003EBC2036382012005B0F0BD0D29FAD061
:10642000E17E007E657E71B1B4F91060062111FB3A
:106430000061B4F90C60B142C1BFB4F912102282FC
:1064400001EBC5026282E28A0192A28A0092CDE942
:106450000205B4F91220B4F910102046FFF75EFED1
:10646000237E228A03EB430302EB43032382D2E71A
:106470000A2907D100230382417E927A438A01FBD5
:106480000233C7E70D29C6D0157AA942C3D3517A82
:106490009942C0D351685D1BEDB201EBC505A878E8
:1064A00028B3E97819B3E17E267E677E91B195F92C
:1064B00005100844B4F9101006FB0011B4F90C00E3
:1064C000814207DD00202082B4F91210927A02FB8B
:1064D00007126282E28A0192A28A0092CDE90267E3
:1064E000B4F91220B4F910102046FFF717FE2979ED
:1064F000227E238A01FB0233B8E7012938BF01213C
:10650000017641767047704710B510210446FEF7BA
:10651000CEF9204610BD0EB403B503AB002153F8ED
:10652000042B019301F0B7FC02B05DF804EB03B05B
:106530007047000073B5044608462279A36832B15B
:10654000A3B90B4902B0BDE8704001F069BC094A2B
:10655000267B094D0949647B012E18BF2946CDE9E8
:1065600000140749FFF7D7FF02B070BD054AEFE7F7
:10657000159A0B000C9A0B00119A0B000D9A0B0048
:106580002B9A0B00049A0B0010B5044B03600446D1
:10659000C06A08B101F0B0F9204610BD049F0B009D
:1065A00010B50446FFF7F0FF20465021FEF77FF9B3
:1065B000204610BD002910B54BDBB0F90C408C42D1
:1065C00047DD002A45DBB0F90E40944241DD847E70
:1065D000022C1FD0032C26D0012C04D10489D243D5
:1065E00014440A4621B2012B23D0022B32D083BBA4
:1065F000002A13460489C06AB8BFD31DDB1013FB01
:10660000041102F0070201239340425C22EA0302D4
:1066100042541EE00489013C611A4489D243224459
:1066200009B212B2DFE74489013C641A114622B272
:10663000D9E7002A04891346B8BFD31DDB1013FB2A
:106640000411C36A02F0070001228240585C024331
:106650005A5410BD002A13460489C06AB8BFD31D1E
:10666000DB1013FB041102F00702012303FA02F20C
:10667000435C5A40CCE7000070B504461D46002636
:10668000FFF7E2FC114B2360666215B902F076FB5E
:106690000546FF2384F8333084F836309DF91030F6
:1066A00084F837300A4BA363012384F83C30059B00
:1066B000A3644FF6FF72069BA286C4E90A562664BD
:1066C000A4F84460E364204670BD00BF049F0B0043
:1066D000509A0B00F8B50446806A0D4690B194F9C3
:1066E000301001F023FAA06A036800219B689847E4
:1066F000A06A036829469B689847A06ABDE8F840ED
:1067000001F01BBA94F93530014698B202F0B1FAA3
:10671000606A20B12946BDE8F84001F09FBC082618
:10672000802794F9330005EA070180B202F0A1FA4C
:1067300094F93400012180B202F09BFA94F93400FC
:10674000002180B202F095FA013E4FEA5707E8D1E6
:10675000F8BD38B50446806A0D4680B1A16C01F0E1
:10676000ABF9002D204614BFA721A621FFF7B2FFE9
:10677000A06A88B1E16CBDE8384001F09DB9606A5B
:1067800018B104F1380101F0FBFB94F93600002147
:1067900080B202F06EFAE4E794F93600012180B28B
:1067A00002F067FA606A18B1BDE8384001F0CEBB6C
:1067B00038BD2DE9F8430446806A0D468F1840B372
:1067C00094F9301001F0B2F9A06A036800219B68C7
:1067D00098470126AF42A06A17D01F2E0CD901F0AE
:1067E000ACF994F93010A06A01F0A0F9A06A03682E
:1067F00000219B6898470126A06A15F8011B0368D1
:1068000001369B689847F6B2E4E7BDE8F84301F02B
:1068100094B994F93530014698B202F02AFABD4293
:1068200022D0606A15F8019B18B1494601F016FCA8
:10683000F5E708264FF0800894F9330009EA0801CB
:1068400080B202F016FA94F93400012180B202F00D
:1068500010FA94F93400002180B202F00AFA013EE5
:106860004FEA5808E8D1DAE7BDE8F883B0F90A3012
:10687000DA1D48BF03F10E02B0F90830C06AD21029
:106880005A43002102F014BC2DE9FF411E46C36AA1
:106890009DF8288004460F461546C3B12046FFF7F1
:1068A000E5FFB4F90A00B4F90810202821DC202300
:1068B00001222038CDE9013200EBD0707323733907
:1068C000009301EBD171894B40F34F0221E0B0F905
:1068D0000A30D81D48BF03F10E00B4F90830C010CB
:1068E000584301F001F8E0620028D7D104B0BDE8B8
:1068F000F0814038C0F3C03202FA80F24023012018
:10690000CDE90130522352390093794B01EBD1711B
:106910005210204641F34F01FFF7ACFBA06A84F808
:106920003170002878D0002D74D1B4F90A30202BB2
:106930000CBF3C253D2584F83050B8F1000F01D044
:1069400001F0BEF8FEB194F9370000281BDB0121ED
:1069500080B202F07DF994F93700012180B202F093
:1069600088F9012001F014F894F93700002180B271
:1069700002F07FF90A2001F00BF894F937000121A9
:1069800080B202F076F9A06A002874D0A16C01F000
:1069900093F8042257492046FFF70BFF618901391C
:1069A000C9B22046FFF796FE534904222046FFF75E
:1069B00000FF94F93130012B0CBF10211421204627
:1069C000FFF788FE04224D492046FFF7F2FEA36838
:1069D0004B4A93425CD14B4904222046FFF7E9FE23
:1069E000D9212046FFF776FE94F93130012B0CBFF8
:1069F0002221F1212046FFF76DFE20464249062262
:106A0000FFF7D7FEA06A002863D0E16C01F054F8CC
:106A100001206BE76DB28EE794F93500012180B259
:106A200002F016F994F93600012180B202F010F953
:106A300094F93600012180B202F01BF9656A3DB17C
:106A4000B8F1000F3FF47EAF284601F06BFA79E70A
:106A500094F93300012180B202F0FAF894F934007D
:106A6000012180B202F0F4F894F93400294680B292
:106A700002F0FFF866E7606A18B104F1380101F02E
:106A80007FFA94F93600002180B202F0F2F880E734
:106A90001E4A93420ED11E4903222046FFF789FE6B
:106AA00094F93130012B0CBF9F21CF212046FFF7F5
:106AB00011FE95E7174A934292D1174903222046C7
:106AC000FFF777FE94F93130012B0CBF1021AF2175
:106AD000ECE794F93600012180B202F0CAF8606A4E
:106AE000002895D001F032FA92E700BF1C9D0B0000
:106AF0005C9A0B00649F0B00689F0B006C9F0B005F
:106B000080002000769F0B00709F0B0080004000EB
:106B10007A9F0B00600010007D9F0B0070B5002A6B
:106B2000BDF810503DDBB0F90A40944239DD002930
:106B3000BEBF5B181BB20021B0F90840CE18A642B8
:106B4000C4BF631A1BB2002B2BDDC06AD61014FB26
:106B50000611014402F0070001228240012DD2B249
:106B600016D0022D0BD0E5B9D243D2B20B449942D4
:106B700017D011F8010B104001F8010CF7E70B4496
:106B800099420ED011F8010B504001F8010CF7E7C3
:106B90000B44994205D011F8010B104301F8010C88
:106BA000F7E770BDF0B50029BDF8145076DBB0F9F9
:106BB0000860B14272DA002ABEBF9B181BB20022E5
:106BC000B0F90A40D718A742C4BFA31A1BB2002BC2
:106BD00064DDC2F3C404C76A16FB041612F0070290
:106BE000DBB207EB060423D0C2F10802D2B22D4972
:106BF00093423CBF4FF0FF0CA2EB030E895C3CBFFD
:106C00004CFA0EFC0CEA0101012D07D0022D2ED00A
:106C10004DB917F806C02CEA010103E017F806C0C9
:106C200041EA0C01B955934238D3B0F908100C442D
:106C30009A1AD2B2072A0ED9022D1DD113462178F5
:106C4000C9432170083BB0F90810DBB2072B0C4494
:106C5000F5D802F007020AB3134B012D9B5C1AD042
:106C6000022D1CD0D5B9227822EA030315E017F8CB
:106C700006C081EA0C01D5E7291E18BF012149424F
:106C8000C9B213462170083BB0F90860DBB2072B8C
:106C90003444F7D8DDE7227813432370F0BD22781F
:106CA0005340FAE7549F0B005C9F0B0070B41446EE
:106CB000827EBDF80C60022A0DD0032A18D0012A6A
:106CC00011D10289E443144424B203960A462146B2
:106CD00070BCFFF767BF42890589E4431944144437
:106CE000691A24B209B20396224670BCFFF716BF98
:106CF00045891944691A09B2E7E730B41446827E1F
:106D0000BDF80850022A0DD0032A18D0012A11D14B
:106D1000E2180489A41A24B202950A46214630BC1E
:106D2000FFF7FCBE0289C9431144E2184489A41A42
:106D300009B224B20295224630BCFFF733BF428924
:106D4000C943114409B2E7E72DE9F8430446806AD4
:106D5000002842D0A16C00F0AFFE47490522204632
:106D6000FFF727FD218901392046C9B2FFF7B2FCA0
:106D7000B4F90A30DE1D48BF03F10E06D4E90A0556
:106D80002389F61013FB06F615FA86F600283AD08A
:106D900094F9301000F0CAFEA06A036840219B6895
:106DA00098470127B542A06A24D01F2F0CD900F0C4
:106DB000C4FE94F93010A06A00F0B8FEA06A03681F
:106DC00040219B6898470127A06A15F8011B0368BA
:106DD00001379B689847FFB2E4E7606A18B104F195
:106DE000380101F0CDF894F93600002180B201F0AD
:106DF00040FFB2E700F0A1FEA06A78B3E16CBDE805
:106E0000F84300F059BE94F93500012180B201F039
:106E100030FFAE42F0D0606A15F8019B18B14946C8
:106E200001F01CF9F5E708274FF0800894F93300CA
:106E300009EA080180B201F01CFF94F93400012135
:106E400080B201F016FF94F93400002180B201F005
:106E500010FF013F4FEA5808E8D1DAE794F936000D
:106E6000012180B201F005FF606A18B1BDE8F84366
:106E700001F06CB8BDE8F883809F0B0000210A2266
:106E8000C0E900127047002310B50446C171837138
:106E900088B201F007FF08B10323A37100F0B0FA34
:106EA000206010BD38B50C4605461146A0B201F071
:106EB000CFFE21462846BDE83840FFF7E4BF38B58D
:106EC0000446C07901F0EEFEA579003825F00803EC
:106ED00018BF0120C5F340058542A3710AD000F018
:106EE0008FFAA379206083F00203A371A079C0F325
:106EF000C00038BD00F084FA2368C01AA388984205
:106F0000F4D3A37903F00103AB42EFD000F078FA99
:106F1000A379206083F0010343F00803E5E780795B
:106F200000F00900A0F1080358425841704770472B
:106F300010B504466021006800F0F4FD206800F000
:106F4000FCFDB0FA80F0400910BD38B505460C468E
:106F50000068602100F0E6FD2868036821469B6810
:106F600098472868002100F0E4FD08B1002038BDF2
:106F700028680222602100F0D2FD286803681B699E
:106F800098470028F2D0286803685B699847044650
:106F9000286803685B699847E4B244EA002080B23D
:106FA000E5E70921FFF7D1BF0C21FFF7CEBF70B590
:106FB00004460E4600686021154600F0B3FD2068C7
:106FC000036831469B68984720680368E9B29B686C
:106FD000984720680368290A9B689847206800F052
:106FE000ACFDB0FA80F0400970BD70B504460D46A6
:106FF0001646FFF7AAFF00F47F4040EA0602294642
:107000002046BDE87040FFF7D2BF70B504460D467C
:107010001646FFF79AFFC0B240EA062229462046EC
:10702000BDE87040FFF7C3BF08B5FFF78EFFC0F3A0
:10703000072008BD2DE9F04104469DF818700D4663
:10704000984616466AB1FFF780FFC0B200EA08030F
:1070500043EA07022946204636B1BDE8F041FFF772
:10706000C4BFFFF7E1FFF1E7BDE8F041FFF7CDBF97
:10707000B1F5A07F07B50ED29F290ED84F298CBF3E
:1070800040230023009301223F230321FFF7D2FF77
:1070900003B05DF804FBC023F4E78023F2E707B5F3
:1070A00000210091FE230122FFF7C4FF03B05DF829
:1070B00004FB072907B50FD803290FD810D00229E0
:1070C0000CBF0423002300930122F1230321FFF7C7
:1070D000B1FF03B05DF804FB0E23F4E70C23F2E7E5
:1070E0000823F0E707B5002300930122FE230321C4
:1070F000FFF7A0FF03B05DF804FB07B50122009283
:10710000FE230321FFF796FF03B05DF804FB07B5EC
:107110000F298CBF0823002300930022F7230321AB
:10712000FFF788FF03B05DF804FB07B50223009367
:107130000122EF230421FFF77DFF03B05DF804FB7C
:10714000C72907B516D8B32916D89F2916D88B2971
:1071500016D8772916D8632916D84A2994BF002152
:1071600001210091F82300220421FFF763FF03B0FF
:107170005DF804FB0721F4E70621F2E70521F0E7BB
:107180000421EEE70321ECE70221EAE738B50446E3
:107190000846216000F094FC2046FFF7C9FE054632
:1071A00010B90025284638BD2046FFF7FDFEB0F592
:1071B000C37FF6D12046C821FFF7C2FF2046282111
:1071C000FFF756FF20460821FFF773FF10212046E6
:1071D000FFF79DFF2046FFF7A8FF2046FFF782FF3D
:1071E000E0E700F0D5BB00F00BB97047704770477F
:1071F00003065ABF024B53F820000020704700BF1F
:10720000889F0B0003065ABF024B53F82000002052
:10721000704700BF88A10B0010B5064B0360044601
:10722000006D08B100F0C4F82046FFF7ADF9204624
:1072300010BD00BF90A30B0010B50446FFF7ECFF94
:1072400020467021FDF733FB204610BD30B585B0D8
:1072500004460D4601F092FD104A1149CDE9012185
:107260004FF0FF3280210346009220462022FFF794
:1072700003FA0C4B23600023C4E9143504F15800D1
:10728000FFF7FCFD04F16000FFF7F8FD04F1680072
:10729000FFF7F4FD204605B030BD00BF801A0600A0
:1072A000A086010090A30B0013B50446503000F0F7
:1072B00077F8636DD90705D50222042104F158003F
:1072C000FFF7F0FD636D9A0705D50022032104F155
:1072D0006000FFF7E7FD636D5B0705D502221146ED
:1072E00004F16800FFF7DEFD012300933C22022138
:1072F0002046FFF7C9FA02B010BD10B5436DD9079B
:10730000044602D55830FFF7DAFD636D9A0703D5BE
:1073100004F16000FFF7D3FD636D5B0705D504F151
:107320006800BDE81040FFF7CABD10BD436D0246BE
:1073300013F0010003D002F15800FFF7F0BD7047D1
:1073400008B5024B1B68DB68019308BD48020300C7
:1073500008B5024B1B68DB69019308BD48020300B6
:1073600008B5024B1B681B6A019308BD4802030065
:1073700008B5024B1B685B6A019308BD4802030015
:1073800008B5024B1B689B6A019308BD48020300C5
:1073900008B5024B1B68DB6A019308BD4802030075
:1073A00008B5024B1B681B6B019308BD4802030024
:1073B00008B5024B1B685B6B019308BD48020300D4
:1073C00008B5024B1B685B6C019308BD48020300C3
:1073D00008B5024B1B681B6F019308BD48020300F0
:1073E00008B5024B1B685B68019308BD18020300D7
:1073F00008B5024B1B68DB68019308BD1802030047
:1074000008B5024B1B685B69019308BD18020300B5
:1074100008B5024B1B685B68019308BD2C02030092
:1074200008B5024B1B689B68019308BD2C02030042
:1074300008B5024B1B68DB68019308BD2C020300F2
:1074400008B5024B1B681B69019308BD2C020300A1
:1074500008B5024B1B685B69019308BD2C02030051
:1074600008B5024B1B689B6A019308BD2C02030000
:1074700008B5024B1B681B6B019308BD2C0203006F
:1074800008B5024B1B689B6F019308BD2C020300DB
:1074900008B5024B1B681B68019308BD2802030056
:1074A00008B5024B1B68DB68019308BD2802030086
:1074B00008B5024B1B689B69019308BD28020300B5
:1074C00008B5024B1B68DB69019308BD2802030065
:1074D00008B5024B1B681B6A019308BD2802030014
:1074E00008B5024B1B685B6A019308BD28020300C4
:1074F00008B5024B1B689B6A019308BD2802030074
:1075000008B5024B1B68DB6A019308BD2802030023
:1075100008B5024B1B681B6B019308BD28020300D2
:1075200008B5024B1B685B6B019308BD2802030082
:1075300008B5024B1B681B6C019308BD28020300B1
:1075400008B5024B1B681B6D019308BD28020300A0
:1075500008B5024B1B685B69019308BD6C02030010
:1075600008B5024B1B685B69019308BD6402030008
:1075700008B5024B1B681B6A019308BD6402030037
:1075800008B5024B1B685B6A019308BD64020300E7
:1075900008B5024B1B689B6A019308BD6402030097
:1075A00008B5024B1B689B68019308BD6802030085
:1075B00008B5024B1B68DB68019308BD6802030035
:1075C00008B5024B1B689B69019308BD3802030094
:1075D00008B5024B1B68DB69019308BD3802030044
:1075E00008B5024B1B681B6A019308BD38020300F3
:1075F00008B5024B1B689B6A019308BD3802030063
:1076000008B5024B1B681B6B019308BD38020300D1
:1076100008B5024B1B689B6B019308BD3802030041
:1076200008B5024B1B681B68019308BD30020300BC
:1076300008B5024B1B685B69019308BD300203006B
:1076400008B5024B1B68DB69019308BD30020300DB
:1076500008B5024B1B681B6A019308BD300203008A
:1076600008B5024B1B685B6A019308BD300203003A
:1076700008B5024B1B68DB6B019308BD30020300A9
:1076800008B5024B1B681B6C019308BD3002030058
:1076900008B5024B1B685B6C019308BD3002030008
:1076A00008B5024B1B68DB68019308BD3C02030070
:1076B00008B5024B1B681B69019308BD3C0203001F
:1076C00008B5024B1B685B69019308BD3C020300CF
:1076D00008B5024B1B689B69019308BD3C0203007F
:1076E00008B5024B1B68DB69019308BD3C0203002F
:1076F00008B5024B1B681B6A019308BD3C020300DE
:1077000008B5024B1B689B6A019308BD3C0203004D
:1077100008B5024B1B681B6C019308BD3C020300BB
:1077200008B5024B1B681B68019308BD4C0203009F
:1077300008B5024B1B685B68019308BD4C0203004F
:1077400008B5024B1B681B69019308BD4C0203007E
:1077500008B5024B1B685B69019308BD4C0203002E
:1077600008B5024B1B689B69019308BD4C020300DE
:1077700008B5024B1B68DB69019308BD4C0203008E
:1077800008B5024B1B681B6A019308BD4C0203003D
:1077900008B5024B1B685B6B019308BD60020300D8
:1077A00008B5024B1B681B6D019308BD6002030006
:1077B00008B5024B1B685B68019308BD20020300FB
:1077C00008B5024B1B685B69019308BD20020300EA
:1077D00008B5024B1B68DB6A019308BD2002030059
:1077E00008B5034B1B68D3F88830019308BD00002F
:1077F0002002030008B5034B1B68D3F894300193B3
:1078000008BD00002002030008B5024B1B689B68FE
:10781000019308BD4402030008B5024B1B68DB6BF3
:10782000019308BD4402030008B5024B1B685B6866
:10783000019308BD4002030008B5024B1B689B681A
:10784000019308BD4002030008B5024B1B68DB68CA
:10785000019308BD4002030008B5024B1B681B6979
:10786000019308BD4002030008B5024B1B685B6929
:10787000019308BD4002030008B5024B1B689B69D9
:10788000019308BD4002030008B5024B1B68DB6989
:10789000019308BD4002030008B5024B1B681B6A38
:1078A000019308BD4002030008B5024B1B681B6B27
:1078B000019308BD4002030008B5024B1B685B6BD7
:1078C000019308BD4002030008B5024B1B681B6C06
:1078D000019308BD4002030008B5024B1B685B6CB6
:1078E000019308BD4002030008B5024B1B681B68EA
:1078F000019308BD1C02030008B5024B1B685B68BE
:10790000019308BD1C02030008B5024B1B689B686D
:10791000019308BD1C02030008B5024B1B68DB691C
:10792000019308BD1C02030008B5024B1B685B6A8B
:10793000019308BD1C02030008B5024B1B68DB6AFB
:10794000019308BD1C02030008B5024B1B68DB6BEA
:10795000019308BD1C02030008B5024B1B681B6C99
:10796000019308BD1C02030008B5024B1B685B6C49
:10797000019308BD1C0203008A4210B507D0441AC7
:107980000298C01A4443501A94FBF0F0184410BDFA
:107990000021FFF715BF0000024800230360FFF736
:1079A0000FBD00BFC4E60320002240681146FFF768
:1079B00073BF002240681146FFF77EBF4068002277
:1079C000FFF772BF4068002281F00101FFF75CBF42
:1079D000002340681A461946FFF74EBF002340684F
:1079E0001A461946FFF740BF002240681146FFF7CC
:1079F00033BF002240681146FFF71EBF40680022D7
:107A00000221FFF721BF002340681A46FFF70CBF91
:107A1000024B03225A60024A1A607047C8E60320EC
:107A2000F0A30B007047F8B5064615460C468F18B4
:107A3000BC4206D0336814F8011B9B683046984757
:107A4000F6E72846F8BD007C0022FFF741BD007C28
:107A50000021FFF745BD007C0021FFF749BD007CF8
:107A60000021FFF74DBD007C0021FFF751BD10B58F
:107A700014210446FCF71BFF204610BD38B5044610
:107A800015464FF47A730022C4E90123094B21748F
:107A9000084623602946FFF74BFDBF3008D16B69CC
:107AA000DB0705D56868FFF727FFE868FFF724FFC5
:107AB000204638BD2CA40B00007C0022FFF7E8BC58
:107AC0000023007C1A461946FFF7EABC7FB5002266
:107AD0001423CDE90122ADF804300B788DF808307D
:107AE0004B680393CB680493007C0B7A059301A940
:107AF000FFF726FD07B05DF804FB1FB5003B8DF8CE
:107B000000104FF06401039118BF012369460192F0
:107B10008DF80830FFF7DAFF05B05DF804FB0123AC
:107B2000FFF7EBBF007C0022FFF7C2BCC9B2FFF732
:107B3000F9BF007C0022FFF7C3BC0121FFF7F9BFAA
:107B4000704710B518210446FCF7B1FE204610BD61
:107B5000F0B5037D062B8DB00E4600F104074FF003
:107B6000000412D000F1080515F8011D0A22304664
:107B700000F073F9AF42044419D0002CF4D02E2148
:107B8000304600F051F90444EEE72F236A463946A7
:107B90000A208DF80040FFF7E3FC6846FCF740FE42
:107BA00033680246DB6869463046984704462046FB
:107BB0000DB0F0BD10B5054B0446112240F8043B52
:107BC000002101F075FA204610BD00BF54A40B003F
:107BD0000346074A10B543F8042B01F1100251F88F
:107BE000044B43F8044B9142F9D10A781A7010BD46
:107BF00054A40B00037D042B04D14068003818BF47
:107C000001207047062B07D143683BB983682BB925
:107C1000C3681BB90069F1E7002070470120704775
:107C200010B59DF8084044EA032343EA024242EAC1
:107C3000016104234160037510BD000007B5064BC8
:107C40000360CB7800938B784A780978FFF7E8FFD8
:107C500003B05DF804FB00BF54A40B00014B024AC3
:107C60001A607047D0E6032060A40B000023406830
:107C70001A46FFF7D9BD406800220221FFF7E4BD94
:107C8000002240681146FFF7D7BD00224068114628
:107C9000FFF7E2BD002340681A461946FFF7E4BD2E
:107CA000002340681A461946FFF7E6BD40680021E8
:107CB000FFF70ABE40680021FFF70EBE40680022B1
:107CC00081F00101FFF7E0BD40680022FFF7ECBD45
:107CD000002240681146FFF7EFBD002240681146C0
:107CE000FFF7DABD2DE9F04395B014460D4607467F
:107CF000FFF760FF00211C220DA8009101F0D8F9C8
:107D000040230C9320466B460CAA0021FFF750FC41
:107D1000044600284BD1024601216868FFF79CFD0C
:107D20000221804622466868FFF796FD009E814644
:107D30002146002E3BD0002939D17368022B03D095
:107D40000A2B11D0F669F4E7B8F1000FFAD0716987
:107D500006A8043107ADFFF771FF0FCD3C1D0FC41E
:107D60002B6823704146EDE7B9F1000FEAD0746942
:107D7000102201A801F09CF906238DF8143001AD02
:107D800004F108031834186859682A4603C20833F6
:107D9000A3421546F7D101A906A807ADFFF718FFC2
:107DA0000FCD3C1D0FC42B6823704946CAE70098CD
:107DB000FFF7F6FB384615B0BDE8F083024B034AE7
:107DC0001A6000225A607047D4E603206CA40B00AE
:107DD000F8B506460D468F180024BD420CD0336816
:107DE00015F8011B9B6830469847031E01DB1C44B5
:107DF000F3E7002C08BF1C462046F8BD13B5044627
:107E0000084659B10191FCF70BFD23680199DB6825
:107E10000246204602B0BDE81040184702B010BD2F
:107E200008B5FFF7EBFF08BD03689B68184738B536
:107E30000D210546FFF7F8FF0A2104462846FFF703
:107E4000F3FF204438BD38B50546FFF7D7FF044699
:107E50002846FFF7ECFF204438BD30B58BB0002337
:107E6000012A8DF8243098BF0A2209AC0D46B1FBD7
:107E7000F2F101FB125303F0FF03092B94BF3033DF
:107E80003733DBB2AA4204F8013DEFD92146FFF7B0
:107E9000B5FF0BB030BD2DE9F04186B000AF05460F
:107EA0000E46381D142114463B60FFF73DFD132894
:107EB0000ED8391D2846FFF7A1FF04461EB12846FB
:107EC000FFF7B5FF044420461837BD46BDE8F081F2
:107ED00000F1080323F00703E846ADEB030D22464B
:107EE000411C3B686846FFF71FFD69462846FFF7BF
:107EF00085FF0446C546E1E7014B00229A607047C2
:107F0000DCE603200021FFF7C3BB0021FFF7B8BB6D
:107F100010B5044608462170FFF792FB002363600A
:107F2000204610BD13B504460078FFF7EEFF58B9A0
:107F3000207801904FF6FF71FFF772FB019802B0B5
:107F4000BDE81040FFF7DEBF02B010BD0078FFF7BC
:107F5000D9BF0000400830B5186000241868884276
:107F6000E5B206D90134082C02D040081860F5E7C4
:107F70000725024B5B5D137030BD00BFA0A40B0052
:107F80002DE9F04306468FB000780C46FFF7BDFFA1
:107F900000281BDB35781422002109A801F088F89D
:107FA0000B23002209A92846ADF82430FFF758FB1F
:107FB0009DF82D3013B19DF82C5055B10027B946CE
:107FC000B846012523795DB1C3B100200FB0BDE8EB
:107FD000F083DDF830809DF834909DF83570F1E73E
:107FE000002B35D1A368434508D18DF820908DF83A
:107FF0002170BDF82020A3899A42E6D00023A16811
:108000008DF80F300A9804AB0DF10F02FFF7A2FFB5
:10801000217985B989B9A36843450ED38DF820909D
:108020008DF82170BDF82020A3899A4205D1049BC8
:10803000434502D1C9E70029F9D100230193637BAD
:1080400000939DF80F20237B3078FFF711FBBCE7EE
:10805000CDE900552B462A460121F5E708B5007801
:10806000FFF7E6FAC0B208BD10B50446FFF7C8F93D
:10807000E060236820465B699847002808DAFFF72C
:10808000BFF9E368C01AA3689842F2D34FF0FF30FB
:1080900010BD2DE9F04107460C468E180D46B5423D
:1080A000A5EB040807D03846FFF7DEFF031E02DB0E
:1080B00005F8013BF3E74046BDE8F08110B5044602
:1080C0000068FFF719FC204610BD10B50446006893
:1080D00008B1FFF711FC0023C4E90133236010BD90
:1080E00038B504460D4600680131FFF70DFC10B1AC
:1080F000C4E90005012038BD10B50368044623B16A
:1081000043688B4201D3012010BD2046FFF7E8FFF2
:108110000028F9D0A368002BF5D122681370F2E78C
:1081200037B50D46114601920446FFF7E5FF019A67
:1081300028B92046FFF7C9FF204603B030BDA26032
:108140002946206800F0A6FF2268A3680021D154C8
:10815000F2E7002313B5C0E90033044683600373DC
:1081600041B108460191FCF75BFB019902462046AC
:10817000FFF7D6FF204602B010BD13B5044659B133
:1081800008460191FCF74CFB019902462046FFF797
:10819000C7FF204602B010BDFFF797FFF9E710B503
:1081A00004468AB00023C4E90033A3602373084661
:1081B00001A900F05DFC01A92046FFF7DEFF204683
:1081C0000AB010BD054B02221A60054B054A9A60A1
:1081D0000020C3E90000FFF7EBBA00BFF8E6032078
:1081E000ECE603200000FFFF13B503688DF80710CD
:1081F000DC6B01224FF0FF330DF10701A04702B005
:1082000010BD10B40368DC6B4FF0FF33A4465DF87B
:10821000044B604713B5134602688DF80710D46B02
:108220000DF107010122A04702B010BD10B543694E
:10823000B3F88620B3F884309A42044608D06369C4
:10824000B3F88420511CA3F884101344187910BD8E
:1082500003681B6998470028F1D14FF0FF30F6E71B
:10826000704743691868C043C00F704770470000EB
:10827000064B994210B500F10C0405D0084600F0F9
:10828000E9FD002808BF0024204610BDE0A30B0034
:1082900010B5AC210446FCF70AFB204610BDAC210A
:1082A000FCF705BB2DE9F0414FF0000886B01C46F5
:1082B000C0F8048005460E4617464146102202A823
:1082C00000F0F6FE631C09D04FF47A73B4FBF3F2AE
:1082D00003FB1244CDE902285C430494686910232F
:1082E0000093006802AB41F2050240F6FF71FFF710
:1082F00067F9002807DAFFF727FB03686B600020A7
:1083000006B0BDE8F0816869002300683A4631464E
:10831000FFF776F9031EEEDB1846F1E738B58469FE
:108320000A4B036005467CB16368013B63605BB93F
:10833000236820469B689847A368013BA3601BB94C
:1083400023682046DB689847284638BDE4A40B0024
:1083500010B50446FFF7E2FF20461C21FCF7A7FA00
:10836000204610BD30B587B0044601AD6846FFF722
:1083700065FC0FCD04340FC42B68237007B030BDEB
:1083800070B54D69054B04468C3544F8043B0646F0
:108390000FCD0FC42B682370304670BD54A40B0062
:1083A0002DE9F0439846036893B00D460024DB6A3C
:1083B00006461746984728466B46224621460094B3
:1083C000FFF7F6F80546002863D1009B002B4BD041
:1083D0005B69002B48D006A8FFF7ECFB009B5C69AB
:1083E0006378022B04D1211D06A8FFF7BBFF26E00E
:1083F0000A2B24D11122294601A800F059FEA368B6
:10840000002B38D004F108030DF1040C183418685F
:108410005968624603C20833A3429446F7D1062343
:1084200001A90CA88DF81430FFF7D2FB0DF1340C24
:10843000BCE80F0007AC0FC4DCF80030237006A8BE
:10844000FFF7D8FB80B1336807ADD3F82090124B0B
:108450000C930FCD0DAC0FC42B6823703A464346E6
:108460000CA93046C84705460098FFF799F82846FA
:1084700013B0BDE8F083E368002BC3D14FF6FF7063
:10848000D4F81090FFF774F88145BBD104F11401C2
:10849000AAE72546E8E700BF54A40B0038B54369B6
:1084A0001A68002A054610DAB3F88620B3F884303B
:1084B0009A420AD103681B699847044628B92B6879
:1084C0002846DB6A9847204638BD0120FCE710B5F6
:1084D0004369B3F88620B3F884309A42044605D045
:1084E0006369B3F884201344187910BD03681B69CD
:1084F00098470028F4D14FF0FF30F6E7F8B543690C
:108500001746B3F88620B3F884309A4205460E46E3
:1085100016D06969B1F88430B1F88640E41ABC42DB
:1085200028BF3C46043322461944304600F0B2FDD1
:108530006A69B2F884302344A2F884302046F8BD3A
:1085400003681B6998470028E3D14FF0FF34F5E733
:1085500042690023A2F884304269A2F8863070474D
:108560002DE9F0411F4603680C46DB6A8AB00546D8
:1085700016469847237DD5F81480042B0CBF0220A3
:108580000A2006220121FFF743F8C8F800006B69B2
:108590001B68002B08DA2B682846DB6A0024984702
:1085A00020460AB0BDE8F0812846FFF7D1FFB7B1F9
:1085B000002303A9F8B20393ADF81030FEF7C8FF0B
:1085C0000028E8D1686906230093006803AB41F2F4
:1085D0000B0240F6FF71FEF7F3FF0028DBD11C22EF
:1085E000002103A800F064FD237D042B1DD14FF46E
:1085F00007733046ADF80C30FEF7CAFFADF80E0039
:108600006068FEF7B5FF04906B691C22186803A927
:10861000FEF7E6FF0028BED104340FCC6D698C351F
:108620000FC523682B700124BAE740F61C2330469F
:10863000ADF80C30FEF7ACFF05AEADF80E00231D13
:1086400004F1140718685968324603C20833BB4264
:108650001646F7D1D8E7000030B54269B2F8863047
:108660008BB004462BB1B2F884209A4201D1FFF7B7
:108670006FFF61690868002818DBB1F886507F2D0C
:1086800014D804310823C5F180022944FEF7B0FF55
:10869000002813DD6369B3F886200AB9A3F88420A3
:1086A0006369B3F886201044A3F886006369B3F8C1
:1086B0008600B3F88430C01A0BB030BDFFF744F920
:1086C00003680B2BF2D0FFF73FF903680B2BEDD0BB
:1086D00020230025CDE90235FFF736F90368019321
:1086E000084B0949009302AA2B463220FFF758F89D
:1086F00063691868FEF76CFF63694FF0FF321A6018
:10870000D4E700BFAFA40B00A8A40B0010B54369C9
:1087100004461868002801DBFEF75AFF63694FF032
:10872000FF321A606069112200218C3000F0C0FC19
:108730002046BDE81040FFF70BBF10B500230446EC
:108740000160C0F884308830FFF734FA204610BD4D
:1087500073B500234FF47A72C0E901320E4A036107
:10876000026043610446AC200191FCF79CF8051EB1
:1087700005F10C0608D00123C5E90133074B019927
:108780002B603046FFF7D9FF2046C4E90565FFF7A7
:10879000DFFE02B070BD00BFE4A40B00C8A40B0054
:1087A00010B54FF0FF310446FFF7D2FF204610BD51
:1087B00010B504460068002801DBFEF709FF2046DB
:1087C00010BD0C30FFF7F4BF024B1A68024B1A6061
:1087D000704700BFC4E40320FCE6032070474174E7
:1087E000704708B5007CFEF78BFF20EAE07008BDFB
:1087F00008B5007CFEF75CFF20EAE07008BD08B514
:10880000007CFEF765FF40EAE07008BD08B5007C1B
:10881000FEF756FF40EAE07008BD007CFEF760BF3F
:1088200037B5457C04462DB1207C03B0BDE830400F
:10883000FEF736BF007C0191FEF762FF0028019928
:10884000F2DC284603B030BD10B514210446FCF715
:108850002EF8204610BD000010B54FF47A73044680
:10886000084611460022C4E90123044B236001237A
:1088700020746374FEF74CFF204610BD4CA50B001E
:10888000417470477047704708B50021007CFEF7BF
:1088900067FF40EAE07008BD08B50121007CFEF7E3
:1088A0005FFF40EAE07008BD08B5007CFEF750FFAE
:1088B00020EAE07008BD08B5007CFEF741FF20EA21
:1088C000E07008BD13B50446007C0191FEF740FF3F
:1088D0000028019901DC607C20B1207CFEF748FF74
:1088E00020EAE07002B010BD007CFEF749BF10B571
:1088F00014210446FBF7DBFF204610BD10B54FF4F2
:108900007A73044608460021C4E90113044B23602E
:108910000123207463741146FEF702FF204610BD48
:108920007CA50B00007C0022FEF702BF10B51422CC
:108930000446002100F0BCFB204610BD10B50F4CD2
:1089400088B003A8FFF7F2FF2178BFF35B8F11F027
:1089500001010FD120460191FBF7B8FF019948B101
:1089600003AA0748FFF7CAFF2046FBF7B4FF0548F4
:1089700000F082FB024808B010BD00BF00E70320F2
:1089800004E7032085880B00002240681146FEF7AB
:1089900063BF002240681146FEF77EBF0022406898
:1089A0001146FEF789BF40680022FEF77DBF406890
:1089B000002281F00101FEF767BF002340681A46DC
:1089C0001946FEF759BF002340681A461946FEF7BC
:1089D0004BBF002240681146FEF72EBF40680022C0
:1089E0000221FEF731BF002340681A46FEF71CBF84
:1089F000024B04225A60024A1A60704718E70320AB
:108A0000ACA50B0010B50446FBF70AFF013823188C
:108A10002046834206D90278197800F8011B03F832
:108A20000129F6E710BD70B50C46911E22291DD80C
:108A3000254630B9234430229D4210D205F8012B3F
:108A4000FAE7B0FBF2F602FB1600C1B2092894BFA8
:108A500030315731C9B205F8011B3046E9E7002330
:108A600020462B70FFF7CEFF204670BD0020FCE7AC
:108A700038B5031E0C4615460EDAB3F1004F4FF021
:108A80002D0214BF5842184601230A702A46194481
:108A9000FFF7C9FF204638BD0123F9E7014B1860F5
:108AA000704700BFC8E4032008B50B4B43B1FFF784
:108AB00045FF03681B699847002801DDAFF300807C
:108AC000064B43B100F09AF903681B6998470028E8
:108AD00001DDAFF3008008BD0000000000000000D1
:108AE00008B5FFF7E1FFFEF78BFC014B186008BDEE
:108AF00028E703200548064A064908B5121A00F07F
:108B0000C9FA054B054A1A6008BD00BF00F40320EE
:108B100004F4032004A90B0000F403201E1C279A70
:108B200007B5002300931A466FF07701FEF762FE47
:108B300003B05DF804FB000007B543880A2B08D09A
:108B4000502B0BD1094B1B684BB103B05DF804EB04
:108B50001847FFF7E5FF03B05DF804FB002300931F
:108B60001A466FF07701FEF745FEF4E724E703208D
:108B700010B512480021FEF7F7FE114B1A68114B91
:108B80009A42114B0CBF012200221A7001D0FFF74C
:108B9000B1FFFEF725FC044600F092FA0B4B13B12F
:108BA0002046AFF3008000210848FEF735FEBDE8FF
:108BB000104007480021FEF713BE00BF9D8A0B003E
:108BC00000F403201E1C279A20E703200000000069
:108BD000398B0B00232813B502D9002002B010BD39
:108BE000A0F10B03022B1AD8174C2178BFF35B8F2F
:108BF00011F001010BD120460191FBF767FE0199AD
:108C000028B11248FFF784F92046FBF764FE0F4BAA
:108C10001878FEF71DFD0028DFD10120DEE70128CE
:108C200009D800F0ABF80021007CFEF779FC80F059
:108C30000100C0B2D2E709380128EED800F0DEF812
:108C4000007CFEF755FDF2E7B8E60320BCE6032002
:108C5000232838B504460D460AD8FF2908D0FFF767
:108C6000B9FF28B129462046BDE83840FEF7D8BBF9
:108C700038BD38B504460D46FEF7DAFBFF2810D0A4
:108C8000062804D84D2323FA00F0C30709D4204650
:108C9000FFF7A0FF28B129462046BDE83840FEF77F
:108CA000CFBB38BD10B50446FEF7C2FB031FDBB2D5
:108CB000012B08D92046FFF78DFF20B12046BDE8E3
:108CC0001040FEF7C5BB002010BD0D2810B50446AE
:108CD0009CBF0E34A4B22046FFF77CFF50B10321A5
:108CE0002046FEF795FB032804D12046BDE810403E
:108CF000FEF7BEBB002010BD38B504460D46FFF799
:108D000069FFF0B104212046FEF782FB042805D15B
:108D1000A9B22046BDE83840FEF7A2BB022120469A
:108D2000FEF776FB02280CD12046FEF781FB0128D6
:108D300001D0042805D129462046BDE83840FEF779
:108D40009FBB38BD7047000038B50A4B0360012354
:108D5000044643610849202000F074F82025606033
:108D60000549A560284600F06DF8C4E903052046D2
:108D700038BD00BF18000100E0A50B0030B50E4D56
:108D80002978BFF35B8F11F0010487B011D1284619
:108D9000FBF79CFD68B16846FFF7D6FF6A4621469F
:108DA0000648FEF76BFE2846FBF795FD044800F0E9
:108DB00063F9024807B030BD2CE7032030E70320F9
:108DC000458D0B007047000038B5044614252A462F
:108DD000002100F06DF925804025074925812846AE
:108DE000258200F02FF804496060284600F02AF838
:108DF000E060204638BD00BFE0A50B0030B50E4D49
:108E00002978BFF35B8F11F0010487B011D1284698
:108E1000FBF75CFD68B101A8FFF7D6FF01AA214668
:108E20000648FFF719FD2846FBF755FD044800F0FA
:108E300023F9024807B030BD44E7032048E7032088
:108E4000C58D0B00FBF731BD08B5FEF775FD08B504
:108E5000FEF772FD014900F0F9B800BFFCA50B0058
:108E60007FB500241023CDE90234036815469E69BE
:108E700012686B46CDE90044B0479DF8043003F01A
:108E80000603062B03BF009B2B600120204604B085
:108E900070BD0098904214BF01200620704700006A
:108EA00010B5034B0360044600F0CDF8204610BD1A
:108EB0003CA60B0010B50446FFF7F2FF2046082140
:108EC000FBF7F5FC204610BD2DE9F0411F46DDE91A
:108ED0000834DDF8188098450646154607D10799ED
:108EE00000F0B4F818B165710020BDE8F081394692
:108EF000304600F0ABF80028F6D00123C4F800801B
:108F00002571A371F0E738B515461C4600F09EF8B0
:108F100020B10823E36006232560237138BD73B5B3
:108F200005460C4601921E4600F090F850B9032EFB
:108F300008D82368019A5B692946204602B0BDE83B
:108F40007040184702B070BD10B5034B0360044673
:108F5000FFF7A6FF204610BD9CA60B0010B50446E7
:108F6000FFF7F2FF20460C21FBF7A1FC204610BDC5
:108F7000F7B5089F974205460E4614460AD0A868E2
:108F800002680897156A31462246AC4603B0BDE830
:108F9000F04060471946019300F058F8019B002803
:108FA000EDD0062003B0F0BD2DE9F14F0D46194676
:108FB000DDE90A4BDDE90CA681461746984600F02C
:108FC00045F890B1002D3460377109DB61198A458D
:108FD0000CBF06210121B171002001B0BDE8F08F66
:108FE0000235F9D10123B371F6E7544506D159464C
:108FF000484600F02BF808B17771EDE7D9F8080082
:109000000368CDE90CA6CDE90A4BDC693A46434634
:109010002946A44601B0BDE8F04F60472DE9F04174
:1090200007460C4615461E46FFF76DFF48B9B8685F
:1090300003689F692A4633462146BC46BDE8F04195
:109040006047BDE8F081704700207047814208B555
:109050000ED0406803782A2B0CD049680B782A2B55
:1090600008BF0131FBF7D2FBB0FA80F0400908BD20
:109070000120FCE70020FAE7002301461A461846C3
:1090800000F0ECB80A22002100F0DEB80A2200212C
:1090900000F0DAB80A44914200F1FF3300D1704782
:1090A00010B511F8014B03F8014F9142F9D110BDF1
:1090B00002440346934200D1704703F8011BF9E7CD
:1090C00038B5104B1D68AB6B0446B3B91820FEF7DA
:1090D0000BFC0246A86320B90B4B0C484221FEF75B
:1090E0003BFC0B490B4BC0E900130B4B83600B237C
:1090F000838100210120C2E90401AB6B00221C61C5
:109100005A6138BDC8E40320D5A60B00ECA60B00BD
:109110000E33CDAB34126DE6ECDE050010B501392F
:10912000034632B111F8014F03F8014B013A002C0C
:10913000F7D11A440021934200D110BD03F8011B5E
:10914000F9E70000012B2DE9F04701D0242B06D9C7
:10915000FEF7FAFB162303600020BDE8F087DFF876
:10916000E4C00D462E4615F8014B14F80C7017F0AC
:109170000807F7D12D2C32D12C780127B51C002BF4
:109180005BD0102B09D1302C07D12C7804F0DF04F0
:10919000582C4DD16C781023023507F1004808F1A6
:1091A000FF384FF0000CB8FBF3F9664603FB198A51
:1091B000A4F1300EBEF1090F16D87446A34224DD87
:1091C000BCF1000F1EDBB1451CD301D1A24519DB58
:1091D00006FB03464FF0010C15F8014BE8E72B2C7A
:1091E00004BF2C78B51CCAE7A4F1410EBEF1190FDB
:1091F00001D8373CE2E7A4F1610EBEF1190F04D8A3
:10920000573CDBE74FF0FF3CE6E7BCF1000F05DA27
:1092100022230360464642B930469EE707B17642B4
:10922000002AF9D0BCF1000F00D0691E1160F3E7ED
:109230003024002BB1D10823AFE7302CA5D00A236E
:10924000ABE700BF46A70B0013460A46014602489B
:109250000068FFF777BF00BFC8E403202DE9F8439B
:10926000DFF8B8800646D8F800001F460D46914644
:1092700000F056F8254B1C6834B9254C1C60254B72
:1092800013B11B68C4F8883063681F2B07DDD8F85A
:10929000000000F047F84FF0FF30BDE8F8834EB310
:1092A000D4F8880088B91C4B23B9D8F8000000F026
:1092B00038F8F0E74FF48470FEF716FB0028F4D07E
:1092C0000023C0E94033C4F88800636840F8239065
:1092D00001229A4000EB8301D0F800311343C0F81B
:1092E0000031022EC1F8807002BFD0F80431134360
:1092F000C0F804316368D8F800005A1C0233626079
:1093000044F8235000F00EF80020C6E7E8E70320F9
:109310005CE7032000000000E9780B002CE5032047
:10932000704770477047000031480B006D480B00D4
:1093300095480B0099480B000000000043616C6CDD
:10934000206F6E2070757265207669727475616C1D
:1093500000256900256C6900766563746F723A3A7E
:109360005F4D5F7265616C6C6F635F696E73657290
:109370007400696E006F75740070776D006477001B
:10938000617700746D706C00544D504C32596B769F
:1093900045314A6A710076770052616E67653A001E
:1093A0004C69676874204C6576656C204368616E13
:1093B0006765640046616872656E686569743A0045
:1093C00043656C636975733A004238456E6F366663
:1093D0006A6C73463471544E556A506133794F3517
:1093E00073416E4D57335A565100626C796E6B2E35
:1093F000636C6F7564004E6F7420436F6E6E6563AF
:10940000746564006C696768745F6C6F77006C6981
:109410006768745F737461626C65006C6967687417
:109420005F6869676800000000000000000000003D
:10943000C14B0B00154C0B003F4D0B00626C6E6B6B
:10944000696E660076657200312E312E3000682D0F
:109450006265617400343500627566662D696E0060
:109460003130323400646576005061727469636C27
:1094700065204172676F6E0066772D7479706500A4
:10948000544D504C32596B7645314A6A71006275C1
:10949000696C64004A756C202033203230323320EE
:1094A00031393A35393A3339000000000000000004
:1094B0003E5B4F5B3E3E6B4F6B3E1C3E7C3E1C1842
:1094C0003C7E3C181C577D571C1C5E7F5E1C0018A0
:1094D0003C1800FFE7C3E7FF0018241800FFE7DB94
:1094E000E7FF30483A060E2629792926407F0505F0
:1094F00007407F05253F5A3CE73C5A7F3E1C1C082D
:10950000081C1C3E7F14227F22145F5F005F5F06F1
:10951000097F017F006689956A606060606094A23F
:10952000FFA29408047E040810207E201008082A58
:109530001C08081C2A08081E101010100C1E0C1EF7
:109540000C30383E3830060E3E0E0600000000009B
:1095500000005F00000007000700147F147F142440
:109560002A7F2A12231308646236495620500008C5
:10957000070300001C2241000041221C002A1C7F1E
:109580001C2A08083E0808008070300008080808F7
:1095900008000060600020100804023E5149453E6A
:1095A00000427F400072494949462141494D3318E4
:1095B00014127F1027454545393C4A49493141211C
:1095C0001109073649494936464949291E00001400
:1095D0000000004034000000081422411414141448
:1095E00014004122140802015909063E415D594EFA
:1095F0007C1211127C7F494949363E414141227F0C
:109600004141413E7F494949417F090909013E41A4
:109610004151737F0808087F00417F41002040418D
:109620003F017F081422417F404040407F021C02DE
:109630007F7F0408107F3E4141413E7F09090906B2
:109640003E4151215E7F0919294626494949320385
:10965000017F01033F4040403F1F2040201F3F400B
:1096600038403F63140814630304780403615949C4
:109670004D43007F41414102040810200041414117
:109680007F040201020440404040400003070800FC
:1096900020545478407F284444383844444428387F
:1096A0004444287F385454541800087E090218A4F2
:1096B000A49C787F0804047800447D40002040404A
:1096C0003D007F1028440000417F40007C04780466
:1096D000787C080404783844444438FC182424185E
:1096E00018242418FC7C0804040848545454240406
:1096F000043F44243C4040207C1C2040201C3C4033
:1097000030403C44281028444C9090907C44645451
:109710004C44000836410000007700000041360844
:109720000002010204023C2623263C1EA1A1611274
:109730003A4040207A3854545559215555794122A0
:1097400054547842215554784020545579400C1E89
:109750005272123955555559395454545939555432
:1097600054580000457C410002457D420001457C83
:10977000407D1211127DF0282528F07C54554500BB
:109780002054547C547C0A097F4932494949323A71
:109790004444443A324A4848303A4141217A3A42B4
:1097A000402078009DA0A07D3D4242423D3D40408A
:1097B000403D3C24FF2424487E4943662B2FFC2F48
:1097C0002BFF0929F620C0887E09032054547941D3
:1097D0000000447D413048484A32384040227A00F7
:1097E0007A0A0A727D0D19317D2629292F2826290A
:1097F00029292630484D402038080808080808085C
:1098000008382F10C8ACBA2F102834FA00007B009B
:109810000008142A142222142A1408550055005551
:10982000AA55AA55AAFF55FF55FF000000FF0010DA
:109830001010FF00141414FF001010FF00FF101090
:10984000F010F0141414FC001414F700FF0000FFD3
:1098500000FF1414F404FC141417101F10101F1030
:109860001F1414141F00101010F0000000001F102F
:109870001010101F10101010F010000000FF10103A
:1098800010101010101010FF10000000FF14000046
:10989000FF00FF00001F10170000FC04F414141751
:1098A00010171414F404F40000FF00F71414141437
:1098B000141414F700F7141414171410101F101FA9
:1098C000141414F4141010F010F000001F101F00F6
:1098D00000001F14000000FC140000F010F0101035
:1098E000FF10FF141414FF141010101F00000000CC
:1098F000F010FFFFFFFFFFF0F0F0F0F0FFFFFF00C0
:1099000000000000FFFF0F0F0F0F0F3844443844D2
:10991000FC4A4A4A347E02020606027E027E026346
:10992000554941633844443C04407E201E200602D1
:109930007E020299A5E7A5991C2A492A1C4C7201AE
:10994000724C304A4D4D303048784830BC625A46EF
:109950003D3E494949007E0101017E2A2A2A2A2AE0
:1099600044445F444440514A444040444A514000CA
:1099700000FF0103E080FF000008086B6B0836124F
:10998000362436060F090F060000181800000010D4
:1099900010003040FF0101001F01011E00191D17BA
:1099A00012003C3C3C3C00000000000000000000B5
:1099B000000000000000000000000000F9630B0040
:1099C000D17D0B00B5480B00FF5D0B00015E0B0065
:1099D000335E0B000F5E0B00215E0B00415D0B0040
:1099E000FF5D0B002B600B0029600B004B5E0B0032
:1099F000895E0B00C35E0B00095F0B00255F0B0047
:109A0000A95F0B0064656661756C7420004D53425C
:109A1000004C5342003C53504953657474696E675F
:109A2000732064656661756C743E003C5350495305
:109A3000657474696E6773202573257520257320FE
:109A40004D4F444525753E00000000000000000019
:109A500035650B0007650B0009650B000000000071
:109A600000018000000000000000000003800000F2
:109A70000000000000000007C0000000000000001F
:109A8000000007C00000000000000000000FC00040
:109A900000000000000000001FE0000000000000C7
:109AA0000000001FE00000000000000000003FE098
:109AB0000000000000000000003FF0000000000077
:109AC000000000007FF0000000000000001FF87F91
:109AD000F0000000000000003FFE7FF000000000EA
